{
  "_format": "hh-sol-artifact-1",
  "contractName": "lottery",
  "sourceName": "contracts/lottery.sol",
  "abi": [
    {
      "inputs": [],
      "stateMutability": "nonpayable",
      "type": "constructor"
    },
    {
      "inputs": [],
      "name": "buyLotteryTicket",
      "outputs": [],
      "stateMutability": "payable",
      "type": "function"
    },
    {
      "inputs": [],
      "name": "buySingleLotteryTicket",
      "outputs": [],
      "stateMutability": "payable",
      "type": "function"
    },
    {
      "inputs": [],
      "name": "collectBankedFees",
      "outputs": [],
      "stateMutability": "nonpayable",
      "type": "function"
    },
    {
      "inputs": [],
      "name": "currentPot",
      "outputs": [
        {
          "internalType": "uint256",
          "name": "",
          "type": "uint256"
        }
      ],
      "stateMutability": "view",
      "type": "function"
    },
    {
      "inputs": [],
      "name": "endLotteryAndSendPrize",
      "outputs": [],
      "stateMutability": "nonpayable",
      "type": "function"
    },
    {
      "inputs": [],
      "name": "firstPrizePotShare",
      "outputs": [
        {
          "internalType": "uint256",
          "name": "",
          "type": "uint256"
        }
      ],
      "stateMutability": "view",
      "type": "function"
    },
    {
      "inputs": [],
      "name": "myLottery",
      "outputs": [
        {
          "internalType": "string",
          "name": "lotteryTitle",
          "type": "string"
        },
        {
          "internalType": "bool",
          "name": "lotteryTypeIsSingleTicket",
          "type": "bool"
        },
        {
          "internalType": "uint256",
          "name": "lotteryStartDate",
          "type": "uint256"
        },
        {
          "internalType": "uint256",
          "name": "lotteryTicketPrice",
          "type": "uint256"
        },
        {
          "internalType": "bool",
          "name": "lotteryIsOpen",
          "type": "bool"
        },
        {
          "internalType": "address",
          "name": "lotteryOwner",
          "type": "address"
        },
        {
          "internalType": "address payable",
          "name": "lotteryManager",
          "type": "address"
        }
      ],
      "stateMutability": "view",
      "type": "function"
    },
    {
      "inputs": [
        {
          "internalType": "bool",
          "name": "openMyLottery",
          "type": "bool"
        }
      ],
      "name": "openOrCloseLottery",
      "outputs": [],
      "stateMutability": "nonpayable",
      "type": "function"
    },
    {
      "inputs": [
        {
          "internalType": "string",
          "name": "myLotteryTitle",
          "type": "string"
        },
        {
          "internalType": "uint256",
          "name": "myLotteryStartDate",
          "type": "uint256"
        },
        {
          "internalType": "uint256",
          "name": "myLotteryTicketPrice",
          "type": "uint256"
        },
        {
          "internalType": "address payable",
          "name": "myLotteryManager",
          "type": "address"
        },
        {
          "internalType": "bool",
          "name": "myLotteryIsSingleTicket",
          "type": "bool"
        }
      ],
      "name": "runNewLottery",
      "outputs": [],
      "stateMutability": "nonpayable",
      "type": "function"
    },
    {
      "inputs": [],
      "name": "secondPrizePotShare",
      "outputs": [
        {
          "internalType": "uint256",
          "name": "",
          "type": "uint256"
        }
      ],
      "stateMutability": "view",
      "type": "function"
    },
    {
      "inputs": [],
      "name": "ticketFeeShare",
      "outputs": [
        {
          "internalType": "uint256",
          "name": "",
          "type": "uint256"
        }
      ],
      "stateMutability": "view",
      "type": "function"
    }
  ],
  "bytecode": "0x608060405234801561001057600080fd5b50426002800181905550600160026003018190555033600260040160016101000a81548173ffffffffffffffffffffffffffffffffffffffff021916908373ffffffffffffffffffffffffffffffffffffffff16021790555033600260050160006101000a81548173ffffffffffffffffffffffffffffffffffffffff021916908373ffffffffffffffffffffffffffffffffffffffff1602179055506000600260040160006101000a81548160ff021916908315150217905550600080819055506000600181905550611054806100e96000396000f3fe60806040526004361061009c5760003560e01c8063574479e611610064578063574479e6146102bc578063673bea04146102e7578063a56b21ae14610312578063e4cb34731461031c578063f99b028214610326578063fefa34cf146103515761009c565b806302efc4b6146100a15780630724f091146101675780632b5993fa1461025157806338b97c53146102685780633daa047f146102a5575b600080fd5b3480156100ad57600080fd5b50610165600480360360a08110156100c457600080fd5b81019080803590602001906401000000008111156100e157600080fd5b8201836020820111156100f357600080fd5b8035906020019184600183028401116401000000008311171561011557600080fd5b90919293919293908035906020019092919080359060200190929190803573ffffffffffffffffffffffffffffffffffffffff16906020019092919080351515906020019092919050505061037c565b005b34801561017357600080fd5b5061017c6104a3565b6040518080602001881515815260200187815260200186815260200185151581526020018473ffffffffffffffffffffffffffffffffffffffff1681526020018373ffffffffffffffffffffffffffffffffffffffff168152602001828103825289818151815260200191508051906020019080838360005b838110156102105780820151818401526020810190506101f5565b50505050905090810190601f16801561023d5780820380516001836020036101000a031916815260200191505b509850505050505050505060405180910390f35b34801561025d57600080fd5b506102666105c5565b005b34801561027457600080fd5b506102a36004803603602081101561028b57600080fd5b8101908080351515906020019092919050505061069a565b005b3480156102b157600080fd5b506102ba6106ba565b005b3480156102c857600080fd5b506102d1610c39565b6040518082815260200191505060405180910390f35b3480156102f357600080fd5b506102fc610c3f565b6040518082815260200191505060405180910390f35b61031a610c44565b005b610324610d79565b005b34801561033257600080fd5b5061033b610f0e565b6040518082815260200191505060405180910390f35b34801561035d57600080fd5b50610366610f13565b6040518082815260200191505060405180910390f35b6000831161038957600080fd5b600080541461039757600080fd5b600260040160019054906101000a900473ffffffffffffffffffffffffffffffffffffffff1673ffffffffffffffffffffffffffffffffffffffff163373ffffffffffffffffffffffffffffffffffffffff16146103f457600080fd5b858560026000019190610408929190610f18565b508360028001819055508260026003018190555081600260050160006101000a81548173ffffffffffffffffffffffffffffffffffffffff021916908373ffffffffffffffffffffffffffffffffffffffff16021790555080600260010160006101000a81548160ff0219169083151502179055506001600260040160006101000a81548160ff021916908315150217905550505050505050565b6002806000018054600181600116156101000203166002900480601f01602080910402602001604051908101604052809291908181526020018280546001816001161561010002031660029004801561053d5780601f106105125761010080835404028352916020019161053d565b820191906000526020600020905b81548152906001019060200180831161052057829003601f168201915b5050505050908060010160009054906101000a900460ff16908060020154908060030154908060040160009054906101000a900460ff16908060040160019054906101000a900473ffffffffffffffffffffffffffffffffffffffff16908060050160009054906101000a900473ffffffffffffffffffffffffffffffffffffffff16905087565b600260040160019054906101000a900473ffffffffffffffffffffffffffffffffffffffff1673ffffffffffffffffffffffffffffffffffffffff163373ffffffffffffffffffffffffffffffffffffffff161461062257600080fd5b600260050160009054906101000a900473ffffffffffffffffffffffffffffffffffffffff1673ffffffffffffffffffffffffffffffffffffffff166108fc6001549081150290604051600060405180830381858888f1935050505015801561068f573d6000803e3d6000fd5b506000600181905550565b80600260040160006101000a81548160ff02191690831515021790555050565b60026003015460020260005410156106d157600080fd5b600260040160019054906101000a900473ffffffffffffffffffffffffffffffffffffffff1673ffffffffffffffffffffffffffffffffffffffff163373ffffffffffffffffffffffffffffffffffffffff161461072e57600080fd5b60001515600260040160009054906101000a900460ff1615151461075157600080fd5b6000806000423342604051602001808481526020018373ffffffffffffffffffffffffffffffffffffffff1660601b815260140182815260200193505050506040516020818303038152906040528051906020012060001c905060026006018054905081816107bc57fe5b069050600260060181815481106107cf57fe5b9060005260206000200160009054906101000a900473ffffffffffffffffffffffffffffffffffffffff16925060026006016001600260060180549050038154811061081757fe5b9060005260206000200160009054906101000a900473ffffffffffffffffffffffffffffffffffffffff166002600601828154811061085257fe5b9060005260206000200160006101000a81548173ffffffffffffffffffffffffffffffffffffffff021916908373ffffffffffffffffffffffffffffffffffffffff16021790555060026006018054806108a857fe5b6001900381819060005260206000200160006101000a81549073ffffffffffffffffffffffffffffffffffffffff02191690559055423342604051602001808481526020018373ffffffffffffffffffffffffffffffffffffffff1660601b815260140182815260200193505050506040516020818303038152906040528051906020012060001c9050600260060180549050818161094357fe5b0690506002600601818154811061095657fe5b9060005260206000200160009054906101000a900473ffffffffffffffffffffffffffffffffffffffff1691506000806000604b60646000548161099657fe5b0402925060146064600054816109a857fe5b040291508183016000540390508573ffffffffffffffffffffffffffffffffffffffff166108fc849081150290604051600060405180830381858888f193505050501580156109fb573d6000803e3d6000fd5b508473ffffffffffffffffffffffffffffffffffffffff166108fc839081150290604051600060405180830381858888f19350505050158015610a42573d6000803e3d6000fd5b5080600154016001819055506000808190555060011515600260010160009054906101000a900460ff1615151415610b86576000600260070160008873ffffffffffffffffffffffffffffffffffffffff1673ffffffffffffffffffffffffffffffffffffffff16815260200190815260200160002060006101000a81548160ff02191690831515021790555060005b600260060180549050811015610b845760006002600701600060026006018481548110610afb57fe5b9060005260206000200160009054906101000a900473ffffffffffffffffffffffffffffffffffffffff1673ffffffffffffffffffffffffffffffffffffffff1673ffffffffffffffffffffffffffffffffffffffff16815260200190815260200160002060006101000a81548160ff0219169083151502179055508080600101915050610ad2565b505b600260008082016000610b999190610f98565b6001820160006101000a81549060ff0219169055600282016000905560038201600090556004820160006101000a81549060ff02191690556004820160016101000a81549073ffffffffffffffffffffffffffffffffffffffff02191690556005820160006101000a81549073ffffffffffffffffffffffffffffffffffffffff0219169055600682016000610c2f9190610fe0565b5050505050505050565b60005481565b601481565b60028001544211610c5457600080fd5b6002600301543414610c6557600080fd5b60011515600260040160009054906101000a900460ff16151514610c8857600080fd5b60001515600260010160009054906101000a900460ff16151514610cab57600080fd5b34600054016000819055506002600601339080600181540180825580915050600190039060005260206000200160009091909190916101000a81548173ffffffffffffffffffffffffffffffffffffffff021916908373ffffffffffffffffffffffffffffffffffffffff1602179055506001600260070160003373ffffffffffffffffffffffffffffffffffffffff1673ffffffffffffffffffffffffffffffffffffffff16815260200190815260200160002060006101000a81548160ff021916908315150217905550565b60028001544211610d8957600080fd5b6002600301543414610d9a57600080fd5b60011515600260040160009054906101000a900460ff16151514610dbd57600080fd5b60011515600260010160009054906101000a900460ff16151514610de057600080fd5b60001515600260070160003373ffffffffffffffffffffffffffffffffffffffff1673ffffffffffffffffffffffffffffffffffffffff16815260200190815260200160002060009054906101000a900460ff16151514610e4057600080fd5b34600054016000819055506002600601339080600181540180825580915050600190039060005260206000200160009091909190916101000a81548173ffffffffffffffffffffffffffffffffffffffff021916908373ffffffffffffffffffffffffffffffffffffffff1602179055506001600260070160003373ffffffffffffffffffffffffffffffffffffffff1673ffffffffffffffffffffffffffffffffffffffff16815260200190815260200160002060006101000a81548160ff021916908315150217905550565b600581565b604b81565b828054600181600116156101000203166002900490600052602060002090601f016020900481019282601f10610f5957803560ff1916838001178555610f87565b82800160010185558215610f87579182015b82811115610f86578235825591602001919060010190610f6b565b5b509050610f949190611001565b5090565b50805460018160011615610100020316600290046000825580601f10610fbe5750610fdd565b601f016020900490600052602060002090810190610fdc9190611001565b5b50565b5080546000825590600052602060002090810190610ffe9190611001565b50565b5b8082111561101a576000816000905550600101611002565b509056fea2646970667358221220c4fac2b92f5b7c78acd904524e3a587f21655998e67511515e60b72cfab275d364736f6c63430007030033",
  "linkReferences": {},
  "deployedLinkReferences": {}
}